{
  "contractName": "pearlzz",
  "abi": [
    {
      "inputs": [],
      "stateMutability": "nonpayable",
      "type": "constructor"
    },
    {
      "anonymous": false,
      "inputs": [
        {
          "indexed": true,
          "internalType": "address",
          "name": "_owner",
          "type": "address"
        },
        {
          "indexed": true,
          "internalType": "address",
          "name": "_spender",
          "type": "address"
        },
        {
          "indexed": false,
          "internalType": "uint256",
          "name": "_value",
          "type": "uint256"
        }
      ],
      "name": "Approval",
      "type": "event"
    },
    {
      "anonymous": false,
      "inputs": [
        {
          "indexed": true,
          "internalType": "address",
          "name": "_from",
          "type": "address"
        },
        {
          "indexed": true,
          "internalType": "address",
          "name": "_to",
          "type": "address"
        },
        {
          "indexed": false,
          "internalType": "uint256",
          "name": "_value",
          "type": "uint256"
        }
      ],
      "name": "Transfer",
      "type": "event"
    },
    {
      "inputs": [],
      "name": "decimals",
      "outputs": [
        {
          "internalType": "uint8",
          "name": "",
          "type": "uint8"
        }
      ],
      "stateMutability": "view",
      "type": "function"
    },
    {
      "inputs": [],
      "name": "name",
      "outputs": [
        {
          "internalType": "string",
          "name": "",
          "type": "string"
        }
      ],
      "stateMutability": "view",
      "type": "function"
    },
    {
      "inputs": [],
      "name": "symbol",
      "outputs": [
        {
          "internalType": "string",
          "name": "",
          "type": "string"
        }
      ],
      "stateMutability": "view",
      "type": "function"
    },
    {
      "inputs": [],
      "name": "version",
      "outputs": [
        {
          "internalType": "string",
          "name": "",
          "type": "string"
        }
      ],
      "stateMutability": "view",
      "type": "function"
    },
    {
      "inputs": [],
      "name": "totalSupply",
      "outputs": [
        {
          "internalType": "uint256",
          "name": "_totalSupply",
          "type": "uint256"
        }
      ],
      "stateMutability": "view",
      "type": "function"
    },
    {
      "inputs": [
        {
          "internalType": "address",
          "name": "_to",
          "type": "address"
        },
        {
          "internalType": "uint256",
          "name": "_value",
          "type": "uint256"
        }
      ],
      "name": "transfer",
      "outputs": [
        {
          "internalType": "bool",
          "name": "success",
          "type": "bool"
        }
      ],
      "stateMutability": "nonpayable",
      "type": "function"
    },
    {
      "inputs": [
        {
          "internalType": "address",
          "name": "_from",
          "type": "address"
        },
        {
          "internalType": "address",
          "name": "_to",
          "type": "address"
        },
        {
          "internalType": "uint256",
          "name": "_value",
          "type": "uint256"
        }
      ],
      "name": "transferFrom",
      "outputs": [
        {
          "internalType": "bool",
          "name": "success",
          "type": "bool"
        }
      ],
      "stateMutability": "nonpayable",
      "type": "function"
    },
    {
      "inputs": [
        {
          "internalType": "address",
          "name": "_spender",
          "type": "address"
        },
        {
          "internalType": "uint256",
          "name": "_value",
          "type": "uint256"
        }
      ],
      "name": "approve",
      "outputs": [
        {
          "internalType": "bool",
          "name": "success",
          "type": "bool"
        }
      ],
      "stateMutability": "nonpayable",
      "type": "function"
    }
  ],
  "bytecode": "0x60806040526040518060400160405280600d81526020017f506561726c7a7a20546f6b656e00000000000000000000000000000000000000815250600090805190602001906200005192919062000172565b506008600160006101000a81548160ff021916908360ff1602179055506040518060400160405280600381526020017f505a5a000000000000000000000000000000000000000000000000000000000081525060029080519060200190620000bb92919062000172565b506040518060400160405280600381526020017f312e300000000000000000000000000000000000000000000000000000000000815250600390805190602001906200010992919062000172565b5069d3c21bcecceda10000006006553480156200012557600080fd5b50600654600460003373ffffffffffffffffffffffffffffffffffffffff1673ffffffffffffffffffffffffffffffffffffffff1681526020019081526020016000208190555062000287565b828054620001809062000222565b90600052602060002090601f016020900481019282620001a45760008555620001f0565b82601f10620001bf57805160ff1916838001178555620001f0565b82800160010185558215620001f0579182015b82811115620001ef578251825591602001919060010190620001d2565b5b509050620001ff919062000203565b5090565b5b808211156200021e57600081600090555060010162000204565b5090565b600060028204905060018216806200023b57607f821691505b6020821081141562000252576200025162000258565b5b50919050565b7f4e487b7100000000000000000000000000000000000000000000000000000000600052602260045260246000fd5b610c5c80620002976000396000f3fe608060405234801561001057600080fd5b50600436106100a5576000357c010000000000000000000000000000000000000000000000000000000090048063313ce56711610078578063313ce5671461014657806354fd4d501461016457806395d89b4114610182578063a9059cbb146101a0576100a5565b806306fdde03146100aa578063095ea7b3146100c857806318160ddd146100f857806323b872dd14610116575b600080fd5b6100b26101d0565b6040516100bf91906109d1565b60405180910390f35b6100e260048036038101906100dd9190610914565b61025e565b6040516100ef91906109b6565b60405180910390f35b610100610350565b60405161010d91906109f3565b60405180910390f35b610130600480360381019061012b91906108c5565b61035a565b60405161013d91906109b6565b60405180910390f35b61014e6105f1565b60405161015b9190610a0e565b60405180910390f35b61016c610604565b60405161017991906109d1565b60405180910390f35b61018a610692565b60405161019791906109d1565b60405180910390f35b6101ba60048036038101906101b59190610914565b610720565b6040516101c791906109b6565b60405180910390f35b600080546101dd90610b57565b80601f016020809104026020016040519081016040528092919081815260200182805461020990610b57565b80156102565780601f1061022b57610100808354040283529160200191610256565b820191906000526020600020905b81548152906001019060200180831161023957829003601f168201915b505050505081565b600081600560003373ffffffffffffffffffffffffffffffffffffffff1673ffffffffffffffffffffffffffffffffffffffff16815260200190815260200160002060008573ffffffffffffffffffffffffffffffffffffffff1673ffffffffffffffffffffffffffffffffffffffff168152602001908152602001600020819055508273ffffffffffffffffffffffffffffffffffffffff163373ffffffffffffffffffffffffffffffffffffffff167f8c5be1e5ebec7d5bd14f71427d1e84f3dd0314c0f7b2291e5b200ac8c7c3b9258460405161033e91906109f3565b60405180910390a36001905092915050565b6000600654905090565b600081600460008673ffffffffffffffffffffffffffffffffffffffff1673ffffffffffffffffffffffffffffffffffffffff1681526020019081526020016000205410158015610427575081600560008673ffffffffffffffffffffffffffffffffffffffff1673ffffffffffffffffffffffffffffffffffffffff16815260200190815260200160002060003373ffffffffffffffffffffffffffffffffffffffff1673ffffffffffffffffffffffffffffffffffffffff1681526020019081526020016000205410155b80156104335750600082115b156105e55781600460008573ffffffffffffffffffffffffffffffffffffffff1673ffffffffffffffffffffffffffffffffffffffff16815260200190815260200160002060008282546104879190610a45565b9250508190555081600460008673ffffffffffffffffffffffffffffffffffffffff1673ffffffffffffffffffffffffffffffffffffffff16815260200190815260200160002060008282546104dd9190610a9b565b9250508190555081600560008673ffffffffffffffffffffffffffffffffffffffff1673ffffffffffffffffffffffffffffffffffffffff16815260200190815260200160002060003373ffffffffffffffffffffffffffffffffffffffff1673ffffffffffffffffffffffffffffffffffffffff16815260200190815260200160002060008282546105709190610a9b565b925050819055508273ffffffffffffffffffffffffffffffffffffffff168473ffffffffffffffffffffffffffffffffffffffff167fddf252ad1be2c89b69c2b068fc378daa952ba7f163c4a11628f55a4df523b3ef846040516105d491906109f3565b60405180910390a3600190506105ea565b600090505b9392505050565b600160009054906101000a900460ff1681565b6003805461061190610b57565b80601f016020809104026020016040519081016040528092919081815260200182805461063d90610b57565b801561068a5780601f1061065f5761010080835404028352916020019161068a565b820191906000526020600020905b81548152906001019060200180831161066d57829003601f168201915b505050505081565b6002805461069f90610b57565b80601f01602080910402602001604051908101604052809291908181526020018280546106cb90610b57565b80156107185780601f106106ed57610100808354040283529160200191610718565b820191906000526020600020905b8154815290600101906020018083116106fb57829003601f168201915b505050505081565b600081600460003373ffffffffffffffffffffffffffffffffffffffff1673ffffffffffffffffffffffffffffffffffffffff16815260200190815260200160002054101580156107715750600082115b156108905781600460003373ffffffffffffffffffffffffffffffffffffffff1673ffffffffffffffffffffffffffffffffffffffff16815260200190815260200160002060008282546107c59190610a9b565b9250508190555081600460008573ffffffffffffffffffffffffffffffffffffffff1673ffffffffffffffffffffffffffffffffffffffff168152602001908152602001600020600082825461081b9190610a45565b925050819055508273ffffffffffffffffffffffffffffffffffffffff163373ffffffffffffffffffffffffffffffffffffffff167fddf252ad1be2c89b69c2b068fc378daa952ba7f163c4a11628f55a4df523b3ef8460405161087f91906109f3565b60405180910390a360019050610895565b600090505b92915050565b6000813590506108aa81610bf8565b92915050565b6000813590506108bf81610c0f565b92915050565b6000806000606084860312156108da57600080fd5b60006108e88682870161089b565b93505060206108f98682870161089b565b925050604061090a868287016108b0565b9150509250925092565b6000806040838503121561092757600080fd5b60006109358582860161089b565b9250506020610946858286016108b0565b9150509250929050565b61095981610ae1565b82525050565b600061096a82610a29565b6109748185610a34565b9350610984818560208601610b24565b61098d81610be7565b840191505092915050565b6109a181610b0d565b82525050565b6109b081610b17565b82525050565b60006020820190506109cb6000830184610950565b92915050565b600060208201905081810360008301526109eb818461095f565b905092915050565b6000602082019050610a086000830184610998565b92915050565b6000602082019050610a2360008301846109a7565b92915050565b600081519050919050565b600082825260208201905092915050565b6000610a5082610b0d565b9150610a5b83610b0d565b9250827fffffffffffffffffffffffffffffffffffffffffffffffffffffffffffffffff03821115610a9057610a8f610b89565b5b828201905092915050565b6000610aa682610b0d565b9150610ab183610b0d565b925082821015610ac457610ac3610b89565b5b828203905092915050565b6000610ada82610aed565b9050919050565b60008115159050919050565b600073ffffffffffffffffffffffffffffffffffffffff82169050919050565b6000819050919050565b600060ff82169050919050565b60005b83811015610b42578082015181840152602081019050610b27565b83811115610b51576000848401525b50505050565b60006002820490506001821680610b6f57607f821691505b60208210811415610b8357610b82610bb8565b5b50919050565b7f4e487b7100000000000000000000000000000000000000000000000000000000600052601160045260246000fd5b7f4e487b7100000000000000000000000000000000000000000000000000000000600052602260045260246000fd5b6000601f19601f8301169050919050565b610c0181610acf565b8114610c0c57600080fd5b50565b610c1881610b0d565b8114610c2357600080fd5b5056fea26469706673582212202c13b0791a12ecab6332002fe32bf48b4ef5430681018f81199d494c406e822a64736f6c63430008000033",
  "immutableReferences": {},
  "source": "// SPDX-License-Identifier: MIT\npragma solidity >=0.4.22 <0.9.0;\n\n/**\n** Implementing a standard Pearlzz contract, ERC 20 interface, 6 M, 2 O\n** Loyalty based DAO, which allows for transacting points across several different loyalty systems\n** function totalSupply() public constant returns (uint);\n    function balanceOf(address tokenOwner) public constant returns (uint balance);\n    function allowance(address tokenOwner, address spender) public constant returns (uint remaining);\n    function transfer(address to, uint tokens) public returns (bool success);\n    function approve(address spender, uint tokens) public returns (bool success);\n    function transferFrom(address from, address to, uint tokens) public returns (bool success);\n \n    event Transfer(address indexed from, address indexed to, uint tokens);\n    event Approval(address indexed tokenOwner, address indexed spender, uint tokens);\n*/\ncontract pearlzz {\n\nconstructor() {\n        balanceOf[msg.sender] = __totalSupply;\n    }\n\n    string public name = \"Pearlzz Token\"; \n    uint8 public decimals = 8;     \n    string public symbol = \"PZZ\";  \n    string public version = '1.0'; \n\n    mapping (address => uint256) balanceOf;\n    mapping (address => mapping (address => uint256)) allowed;\n    uint256 private __totalSupply = 1000000000000000000000000; // 1 million tokens\n\n  event Transfer(\n        address indexed _from,\n        address indexed _to, \n        uint _value\n    );\n\n    event Approval(\n        address indexed _owner,\n        address indexed _spender, \n        uint _value\n    );\n\n    /*  function allowance(address _owner, address _spender) public returns (uint256 remaining) {\n      return allowed[_owner][_spender];\n    }*/\n\n/**\n  * @dev Total number of tokens in existence\n  */\n  function totalSupply() public view returns (uint256 _totalSupply) {\n    _totalSupply = __totalSupply ;\n  }\n\n    // transfer A to B and the value, but check if A has value and if it is GT Zero, Add the value to B and send trx to chain\n    function transfer(address _to, uint256 _value) public returns (bool success) {\n        if (balanceOf[msg.sender] >= _value && _value > 0) {\n            balanceOf[msg.sender] -= _value;\n            balanceOf[_to] += _value;\n            emit Transfer(msg.sender, _to, _value);\n            return true;\n        } else { return false; }\n    }\n\n\n    // transfer A to B and the value, but check if A has value and if it is GT Zero, Add the value to B and send trx to chain\n    function transferFrom(address _from, address _to, uint256 _value) public returns (bool success) {\n        if (balanceOf[_from] >= _value && allowed[_from][msg.sender] >= _value && _value > 0) {\n            balanceOf[_to] += _value;\n            balanceOf[_from] -= _value;\n            allowed[_from][msg.sender] -= _value;\n            emit Transfer(_from, _to, _value);\n            return true;\n        } else { return false; }\n    }\n\n    function approve(address _spender, uint256 _value) public returns (bool success) {\n        allowed[msg.sender][_spender] = _value;\n        emit Approval(msg.sender, _spender, _value);\n        return true;\n    }\n\n}\n",
  "sourcePath": "C:\\Users\\Guest2\\Desktop\\av\\Personal\\Learning\\Workspace\\truffle\\pearlzz\\contracts\\pearlzz.sol",
  "compiler": {
    "name": "solc",
    "version": "0.8.0+commit.c7dfd78e.Emscripten.clang"
  },
  "schemaVersion": "3.4.3",
  "updatedAt": "2021-09-23T03:21:56.325Z",
  "devdoc": {
    "kind": "dev",
    "methods": {
      "totalSupply()": {
        "details": "Total number of tokens in existence"
      }
    },
    "version": 1
  },
  "userdoc": {
    "kind": "user",
    "methods": {},
    "notice": "** Implementing a standard Pearlzz contract, ERC 20 interface, 6 M, 2 O** Loyalty based DAO, which allows for transacting points across several different loyalty systems** function totalSupply() public constant returns (uint); function balanceOf(address tokenOwner) public constant returns (uint balance); function allowance(address tokenOwner, address spender) public constant returns (uint remaining); function transfer(address to, uint tokens) public returns (bool success); function approve(address spender, uint tokens) public returns (bool success); function transferFrom(address from, address to, uint tokens) public returns (bool success); event Transfer(address indexed from, address indexed to, uint tokens); event Approval(address indexed tokenOwner, address indexed spender, uint tokens);",
    "version": 1
  }
}